:1000000029C03BC03AC055C038C037C036C035C023
:1000100034C033C032C031C030C02FC02EC02DC05C
:100020002CC02BC02AC029C028C027C026C025C08C
:1000300024C023C063C066C069C06CC06FC072C0FA
:1000400075C078C08AC08DC090C093C096C099C05A
:100050009CC09FC011241FBECFEFCDBFDFE3DEBF2A
:100060001EE3A0E0BEE3E0EFF4E002C005900D92D5
:10007000A430B107D9F722D139C2C2CF85E0E0E080
:10008000F4E090E295832FE936E841E021503040DA
:100090004040E1F700C0000096832FE936E841E0D8
:1000A000215030404040E1F700C00000815051F73E
:1000B00008951F920F920FB60F9211248F9380E133
:1000C000809309048F910F900FBE0F901F90189589
:1000D0008EEE8093010481E2809321040895E82F3D
:1000E0008FEF8E0F883048F58E2F90E0FC0131970E
:1000F000E830F10510F5E65EFF4F099488E0809343
:100100000504089584E080930504089582E08093B7
:100110000504089581E080932504089580E280938A
:100120002504089580E880930504089580E4809371
:100130000504089580E2809305040895E82F8FEF69
:100140008E0F883048F58E2F90E0FC013197E83013
:10015000F10510F5EE5DFF4F099488E080930604E9
:10016000089584E080930604089582E08093060455
:10017000089581E080932604089580E28093260408
:10018000089580E880930604089580E4809306042F
:10019000089580E28093060408958EEE809306040D
:1001A00081E28093260408951F93CF93DF93182F45
:1001B000811114C016C0F1DF8C2F91DF2FE986E882
:1001C00091E0215080409040E1F700C00000CF5FF7
:1001D000C93089F7DF5F1D1302C003C0D0E0C1E062
:1001E000EACFDBDFDF91CF911F9108951F93CF936B
:1001F000DF93182F811113C015C0CFDF8C2F6FDF55
:100200002FE986E891E0215080409040E1F700C05E
:100210000000C15091F7DF5F1D1302C003C0D0E0A2
:10022000C8E0EBCFBADFDF91CF911F91089500971F
:1002300041F0E9EFF0E03197F1F700C000000197DD
:10024000C1F70895DF92EF92FF920F931F93CF9320
:10025000DF93D82E8B018DEC9BEAE3D09EDFDD206F
:1002600021F1D0E00F2EF8ECEF2EF12CF02DD5D0AF
:1002700087709078992324F40197886F9F6F019677
:10028000C1E0C80F8C2F2BDFC8D0B70157D0800F2B
:10029000911FCDDF8C2F52DF83ED90E30197F1F7B3
:1002A00000C00000DF5FDD12E2CF77DFDF91CF918A
:1002B0001F910F91FF90EF90DF90089509DFE0E02C
:1002C000F4E080E1828389E0848BE0E5F0E08081E6
:1002D000897F84608083D2DEC0E5D0E000E014E056
:1002E0008881816088837894889588818E7F8883CF
:1002F00083EC99E00197F1F700C00000F8018085D8
:1003000084FDEECF82E050DFFFE32DE083E0F1508B
:1003100020408040E1F700C0000082E067DF3DDF61
:100320009FE9E6E8F1E09150E040F040E1F700C0DD
:10033000000068EE73E08FE085DFD2CF97FB072ED9
:1003400016F4009406D077FD08D00BD007FC05D03A
:100350003EF4909581959F4F0895709561957F4FDC
:100360000895AA1BBB1B51E107C0AA1FBB1FA617FC
:10037000B70710F0A61BB70B881F991F5A95A9F74E
:1003800080959095BC01CD0108958F929F92AF9278
:10039000BF92CF92DF92EF92FF92CF93DF93EC0167
:1003A000688179818A819B8161157105810591053B
:1003B00021F464E279ED8BE597E02DE133EF41E044
:1003C00050E03AD049015A019B01AC01A7EAB1E4DF
:1003D0004FD06B017C01ACEEB4EFA501940154D079
:1003E000DC01CB018C0D9D1DAE1DBF1DB7FF03C0F1
:1003F0000197A109B04888839983AA83BB839F771B
:10040000DF91CF91FF90EF90DF90CF90BF90AF90B2
:100410009F908F900895B9DF089580E09EE3B5DF47
:100420000895A0E0B0E08093003E9093013EA09339
:10043000023EB093033E0895052E97FB16F40094F8
:100440000FD057FD05D024D007FC02D046F408C0D9
:1004500050954095309521953F4F4F4F5F4F0895F0
:1004600090958095709561957F4F8F4F9F4F089520
:1004700031D0A59F900DB49F900DA49F800D911D2C
:1004800011240895B7FFF4CFF3DF821B930B089577
:10049000A1E21A2EAA1BBB1BFD010DC0AA1FBB1F88
:1004A000EE1FFF1FA217B307E407F50720F0A21BFA
:1004B000B30BE40BF50B661F771F881F991F1A9467
:1004C00069F760957095809590959B01AC01BD0191
:1004D000CF010895A29FB001B39FC001A39F01D097
:1004E000B29F700D811D1124911D0895F894FFCFC6
:0404F0000100000007
:00000001FF
